:020000042000DA
:1000000000980020A5040020AD040020C5040020B5
:1000100000000000000000000000000000000000E0
:10002000000000000000000000000000DD040020CF
:100030000000000000000000F5040020F70400208C
:10004000A12900207F2A00200D3103006D2A002005
:10005000032A00208D310300912A00209F2A0020CE
:100060004D3D002015200020DF2A0020AD31030087
:10007000578102005F240020F9040020F9040020C9
:10008000F9040020F9040020F9040020CD1F00200D
:10009000D11F0020D51F0020D91F0020DD1F002008
:020000042000DA
:1001600032000000CD0600202F2600209B2E00200C
:10017000000000000000000063800200BD8002005B
:10018000C10A0020FB8002001981020035810200B3
:100190005D810200E52700203D0B0020AD0A002014
:1001A000B70A002000000000000000003F0000002F
:1001B000F48B002000040000740B080048010000CC
:1001C0006807080000040000C80C080020050000B3
:1001D000000000002000000048000000580000005F
:1001E0006800000004010000160100002801000062
:1001F0002E010000202A00008E2E000001000000C9
:1002000088130000B9260020E9600200FD93020077
:100210006113002019280300A574020015060020B0
:1002200003000000D5200200F12E00200400000091
:10023000D74902000F4902001D0C00206391020003
:10024000B7910200BF910200078202007182020092
:1002500058580020AD8302009384020041850200BB
:1002600015860200378602005F860200758602004E
:10027000F9870200258902005D8A0200D38C020002
:10028000098D02000F900200438D0200278E0200AC
:10029000F98E0200478F0200230A0020D58F02004A
:1002A00049510200775102002F5202001000000055
:1002B00020030000803E000000000000000000005D
:020000042000DA
:1002C000504600030003983A6400F401B80B000C98
:1002D000B80B120030003000CD009A01120024004B
:1002E00030006400B0001800280012001200D0078F
:1002F0000000FFFF00000000000000000000000000
:100300001F000002444131343538302D30310000B7
:1003100000000000000000000000000000000000DD
:0403200000000000D9
:020000042000DA
:10034000FFFF010000C201000000000000000000EB
:100350000000F40101000116000503030A1811074B
:100360002F2A93A6BDD84152AC0B10992EC6FEED94
:10037000000000000000000000000000000000007D
:10038000000000000000000000000000000000006D
:1003900000000000000000000000736364706D0046
:1003A000000000000000000000000000000000004D
:1003B000000000000000000000000000000000003D
:1003C000000000000000000000000000000000002D
:1003D0000000000000000000030000CAEA80D0070F
:0403E000064064323D
:020000042000DA
:100440000348854604F016FE00480047C720020016
:10045000009800200F4906200880FF200E49013037
:1004600008600E4988683E2290432E308860002242
:10047000052000070280018A0F231B021943018215
:1004800001210748C90404C1401E0028FBDA62B6F6
:10049000704700000034005080E100E0003300505D
:1004A000FF0B00001548804715480047042071469F
:1004B000084203D0EFF3098012490847EFF30880A0
:1004C0001049084704207146084203D0EFF3098021
:1004D0000D490847EFF308800B490847042071468F
:1004E000084203D0EFF3098008490847EFF308807A
:1004F00006490847FEE7FEE7FEE700005504002036
:10050000410400207905002011050020210E002063
:1005100005221207518A8023194351821349036827
:100520000B6043684B6083688B60C368CB60036972
:100530000B6143694B6183698B61C369CB6108625D
:100540000B48836A4B62C36A8B62036BCB62C36BDB
:100550000B63436B4B63806B8863064908200880FC
:10056000908A800601D500BE7047FEE7001808009B
:1005700000ED00E000330050052109070A8A04233A
:100580001A430A820A8A02231A430A820A894023EA
:100590001A430A811B4B01221A601B4B08221A8046
:1005A0004A8A80231A434A82184A036813614368BF
:1005B000536183689361C368D361036913624369BC
:1005C000536283699362C369D36210631048836A7C
:1005D0005363C36A9363036BD363C36B0B4A4032A9
:1005E0001360436B5360806B9060888A800608D5E7
:1005F00000BE488A012280088000D203104348824E
:100600007047FEE780E200E0003300504018080029
:1006100000ED00E070B516460C460546012802D0F4
:100620000C2D26D10DE006222149224804F034FD8C
:1006300000281ED006221F49304604F033FD062054
:1006400012E01D4D29680878C00610D520782028B2
:1006500003D200202070042070BD0A7E30463A315B
:1006600004F020FD2868007E2070002070BD01206D
:1006700070BD32462146284604F01AFD70BD70B5A3
:100680000E480F49C405228880252A4322800D4A3E
:1006900053891B0701D4401EFAD20B4A0120106077
:1006A0000622044804F0FEFC2088A843208070BD88
:1006B000383E03000D800020C0060800A08601001F
:1006C000D47F0400200000500080004008B500F0F6
:1006D00042FA052400252407C826684F09E00421B2
:1006E0006846009504F0EAFC002817D000F0A7F94E
:1006F00014E02089000611D501208007006B00045A
:100700000CD404F0E1FCC00708D1042004F0E2FCA2
:10071000009004F0E5FC00980028E0D172B602F0E9
:1007200031FA042806D002280BD0032809D001286A
:1007300016D016E052480078012801D0032000E0CE
:10074000022000F011F8A08A800602D54D49082049
:10075000088030BF4C48016904229143016100E0E8
:1007600030BF62B63E80C4E7F8B50446684605254A
:1007700004702D07288A0421084328824348444FE7
:10078000C0690126012811D9032C18D104F0AEFC50
:10079000002814D004F0B0FC002810D0032004F08E
:1007A000B1FC00280BD00220387009E0032C06D1E0
:1007B000032004F0A7FC002801D03E7000E00224D2
:1007C00068460470204600F023F800203149022CCE
:1007D000087001D0032C1AD12F494A88FF23013316
:1007E0009A434A806A882D4B1A804A8832434A804D
:1007F00000900099491C00911429FADB6989890845
:100800008900491C698169894906FCD56880F8BD61
:1008100010B5022801D0032828D11B490B690422F6
:1008200013430B61052109074B8A2024A3434B8204
:100830000B8A022423430B8210230228488A16D0F5
:10084000104348827F220888920180242043088038
:100850000020401CC0B20A28FBD3488A18434882B3
:100860000F48521E42610888A043088010BD104303
:100870004882488A9843488210BD000000310050E9
:10088000540208000033005000ED00E0E0010020B9
:10089000C40608007D800020200000507E800020DB
:1008A000008000407047000026480178002902D0EF
:1008B0008021417070472449002008702349C87086
:1008C000704720480178002902D08121417070478B
:1008D0001D49012008701D49C870704719480178EA
:1008E000002902D082214170704700BE16490220C3
:1008F000087016490120C8707047002804D00128EC
:1009000003D0022802D1E9E7CEE7DAE770470D48C5
:10091000C07870470020EFF31081012282F3108825
:10092000052212071289120605D4094802890123FB
:100930001A4302811846002900D0012181F3108852
:10094000704700001480002054020800C60608000A
:100950000033005070B50520000701893022914313
:10096000018101898022114301810189890889005F
:10097000491C01810189082319430181AF490C8871
:1009800014430C80448A9C434482058940242543B7
:100990000581058A0426B5430582858AAD07FCD505
:1009A000A74E002575600E8801252E430E804D89C7
:1009B000AE05A44D0E8801D52E4300E0AE430E8057
:1009C0000D887826B54328350D800D8806263543D9
:1009D0000D80458A1D4345820B8893430B80028915
:1009E000A24302814889800503D5944905206031DE
:1009F0008880012080070168821591430160924838
:100A000001683F2252029143421489180160016833
:100A100002031143016070BD10B58C4804F078FBEF
:100A200010BD70B5854C6088C006050F04F076FBDC
:100A300061881E2291436A001143618070BD70B5C8
:100A400083490120C863C86B0028FCD101208007BE
:100A5000C169804800220368994200D20260784C44
:100A6000012663787C4D002B04D06270016004F095
:100A70005BFB11E0026819238A1ADB019A4214D346
:100A8000016004F051FB2988884201D9411A00E035
:100A9000091A89B2182908D32880012004F04AFBDA
:100AA00004F04EFB002800D1667070BD08B504F05C
:100AB0004DFB009008BD08B504F04EFB009008BD4A
:100AC00008B5664901204A695206D20F13D04A6917
:100AD0009206D20F0FD000220A610092FF225F32ED
:100AE000009B5B1C00939342FAD34969C907C90F65
:100AF00002D004F037FB002008BD1FB5684601F0A6
:100B00008CFB009804F034FB1FBD554B0020197876
:100B100000290DD04E490122CA63CA6B002AFCD1BC
:100B200001218907C9694F4A1268914201D2012007
:100B300070470021197070470020704710B54A496E
:100B400000200860FFF768FF01208007016B490063
:100B50004908016310BDF8B501204149434C0870B4
:100B6000C82525800026668041480827478004F074
:100B700005FB01F037F90D207901800104F004FB39
:100B8000FFF77DFD03F060F9012004F0F1FA01F0B8
:100B9000B1FCFFF7DFFE042000F048F8072000F06A
:100BA00045F80A2000F042F8062000F03FF80B203C
:100BB00000F03CF8012000F039F8022000F036F88F
:100BC000002000F033F82B48006804F0E3FA00F04E
:100BD000A8F800F0E1FF00F0D0F901F086F8A005D8
:100BE0000168821511430160FFF787FFFFF75CFE84
:100BF00002F088FD04F0DCF8FFF7A0FF05200007F5
:100C0000C6820E494888E0229043A03048800120E7
:100C100004F0C6FA258016484780F8BD164910B57D
:100C2000884200D000BE04F0C1FA10BDC106C90E52
:100C300001208840114908607047000020000050E2
:100C4000188000200010000000020040E2040000B4
:100C5000C00000407C040800780408000010005028
:100C600013800020745C00208C03080000310050C9
:100C700000330050049000201111111180E200E0B7
:100C8000FEB5784D019117461E4600240090294676
:100C900004F092FA050005D033463A4601990098CF
:100CA000A84704462046FEBDFFB581B01F460E464C
:100CB0004D780C78002004F085FA042824D0002810
:100CC0001DD121E06848816E2E2060430918888874
:100CD0000207120F130004F07BFA070505050F0544
:100CE0000F050F008204920E062A05D27278012A9F
:100CF00012D0072210438880641C6407640F2846C2
:100D00006D1EEDB20028DDD13B463146039A0198B5
:100D100004F064FA05B0F0BD204604F065FA002046
:100D2000F8E770B551480378021D0021504D07E0E7
:100D3000CC00165D002E01D12418A560491CC9B253
:100D40009942F5D370BD028908894A49101A80B2C8
:100D5000884201D90120704700207047FFB586788E
:100D60000446300281B00E30009004F02BFA0028C7
:100D700001D0FF2652E00021442004F03BFA3E4F10
:100D8000B5007851442104F03BFA0121009804F0A9
:100D90003DFA79590298888079596088C8807859D5
:100DA00022792030417CD20749084900D20F1143F3
:100DB000417478590622A11D3B3004F073F978592B
:100DC000617940304170785906223430039904F03B
:100DD00069F9795904982031887602980D281DD038
:100DE000264810230088009A81B2254804F014FA9E
:100DF0000546608828806079687228460622A11D11
:100E00000A3004F04FF9A0896880E089A880208A20
:100E1000E880A07C2872284604F004FA304679E77E
:100E200081692039897F082905D2114A8900103249
:100E3000515881617047FEE70D4A12493032002057
:100E400008CA401C08C11028FADB01200E49C00660
:100E500008600E49CA691202120ACA610A49803939
:100E60000860704784430300D802080004060800A5
:100E70008C580020307500005405080060010020E7
:100E8000013800001084004080E100E000ED00E047
:100E900070B516460D46104604F094F900286AD045
:100EA000340A304604F08EF9012812D0A87A1E28A0
:100EB00011D029460A310E2846D019DC801E0300C5
:100EC00004F086F90B255929592D59315939593EC4
:100ED0005900022070BD3146314804F0A9F90021C3
:100EE000204604F0ABF90221304604F08FF942E0CD
:100EF00018283DD006DC102819D012282CD016282E
:100F000039D131E0522823D0D22834D128E02046EC
:100F100004F09AF92FE0204604F09CF92BE02046DB
:100F200004F09EF927E0204604F0A0F923E02046D3
:100F300004F0A2F91FE01B4A2046126890471AE00D
:100F4000204604F09FF916E0204604F0A1F912E0D3
:100F5000204604F0A3F90EE0204604F0A5F90AE0CB
:100F6000204604F0A7F906E0204604F0A9F902E0C3
:100F7000204604F0ABF9002070BD70B50A48037834
:100F8000021D0021094D07E0CC00165D0A2E01D19B
:100F90002418A560491CC9B29942F5D370BD000060
:100FA0000128000070580020040608005C59002049
:100FB000F7B507461646019804F08EF90546C48831
:100FC000384604F08FF9401E844200D2204684B295
:100FD00022460B21384604F08BF90746002E05D037
:100FE00033460A21019A04F089F9FEBD29467C8026
:100FF00022460831381D04F055F8384604F084F9CB
:10100000FEBDF8B50646002000900C464A88014611
:101010006B46304604F07EF9020001D061881EE084
:10102000608804F07DF9002817D005890120EAB214
:10103000002104F07BF90C4B0CCB10401940084305
:101040000BD032020223294608480A3204F0E4F8A1
:101050006188018004F0E6F804E0618800223046EF
:10106000FFF7A6FF0020F8BD308000200228000016
:10107000F8B50D46064681002B48EA884458521CB4
:1010800020686B89018F294F5143009101464031FF
:101090004A89C989511A8AB2991A89B2B94214D2B5
:1010A0009A4212D0294604F047F92D892049009828
:1010B00004F048F92818801C4034E0823002401CBB
:1010C00080B2042104F0A2F8F8BD2821304604F0D3
:1010D0003FF9F8BDF8B50546870013480C46C059DE
:1010E000C9880068114E024640325389D2899A1A43
:1010F00092B28B1A9BB2B34211D20B4E8A420ED0DF
:1011000004F02CF9F05905225F30611C03F0CAFF8E
:101110002802401C80B2052104F078F8F8BD28218F
:10112000284604F015F9F8BD4C030800FF7F0000C5
:101130001027000070B50446007800250D2801D066
:101140000A2200E002225A494B7A002B06D00D28D1
:1011500004D0637C032B01D0432551E0097A8A43F4
:1011600039D10D2809D00E2802D00F2803D134E040
:10117000607C032804D3402542E0607C0328FAD831
:10118000A07C0428F7D20A2908D0607C012822D04C
:10119000022820D06078032809D811E004F0E4F890
:1011A000012806D16078032803D0002801D0492502
:1011B00026E004F0D9F8002802D160780228F6D899
:1011C0003020035D22462046E17C3132143000F0AD
:1011D00019F8054614E0422512E004F0C5F801288C
:1011E00007D16078052804D1A01D04F0C3F80028B9
:1011F000DDD004F0B9F8002802D160780228D6D8F2
:10120000284670BDFFB5002086B001216A461170E6
:10121000044605910021002C06D0089D099A1F2341
:101220009A4234D9402032E01C23069D079AF7E702
:101230006B185E78330003F0CBFF1D2610101010E2
:1012400010101010102626262626262626262626AC
:1012500026261010101010102600059B03E06F4684
:10126000FF5CB74204D05B1E5BB2002BF7DA03E0F1
:10127000002B01DB4A2006E0059B6F46FE54059BD0
:101280005B1CDBB205936B5C491C5918C9B29142D7
:1012900001D20028CCD0914202D04A200AB0F0BD41
:1012A000641CE4B2022CF9D20028B3D0F6E70000A7
:1012B0009805080070B5EFF31085012080F31088C1
:1012C0002C4804F05DF80446002D1DD0012080F369
:1012D0001088002C2DD020464038C08F26498842E7
:1012E00027D16189208904F051F805000ED02146EC
:1012F0001031A38962892089A847002806D00128D7
:1013000017D0022815D105E00020E0E7204604F0C0
:1013100043F80EE0EFF31085012080F310881548A4
:1013200021460C3004F03EF8002D0CD0012080F353
:101330001088EFF31084012080F310880D480068B6
:10134000002802D004E00020F1E7012004F030F88A
:10135000002C03D0012080F3108870BD0020FAE734
:1013600010B5BC21054803F04BFF0549012004F0EE
:1013700025F810BDA8050800388300000406080001
:10138000B512002000B502790021130003F020FF00
:101390000C34070735352035353535352734427956
:1013A000042A27D8C279530707D05207520F012ABF
:1013B00003D0042A01D0052A1CD18279002A01D049
:1013C000012A17D1007AC01F0A2816D3062114E07B
:1013D0004279521E0A2A10D3082242710DE0407948
:1013E00042070AD04007400F012806D0042804D045
:1013F000052802D00A2100E00721084600BDF3B508
:1014000081B001980C460102CA1D022332480E31F8
:1014100003F002FF04700199054602272F488E0051
:10142000002C06D0042C16D0062C10D0072C3FD14F
:1014300008E0815905224968897C1140697080590A
:10144000C77335E0084603F0BFFF687030E080598D
:101450000F21C1732CE0044680594068417C01296A
:1014600002D1007E01280FD0019803F0B3FF0121C3
:101470000028A0590BD04268D07D00281CD001283C
:101480001AD004280DD00FE0002068700DE04068ED
:10149000C27D022A01D0042A06D1007C02280BD189
:1014A00002E0107C022807D06F70A1590320C87396
:1014B000284603F0B7FEFEBD6970F6E701460A78DC
:1014C0000120042A01D90020704749780029FBD067
:1014D0000129F8D170470000021C0000280508000F
:1014E000FFB589B00D4600206946059008720B983B
:1014F000000A009003F06EFF07460B9803F062FEAF
:1015000000287DD00B982978000A8400784E0129A4
:1015100063D0042904D0062948D0072968D125E0E2
:101520003059C17B032901D0042961D16978002990
:101530001AD040681022A91C03F0B4FD002F06D079
:101540003159C87B032807D0042808D050E030590F
:10155000C07B032803D04BE00B20C87348E0052173
:10156000009803F03DFF43E00120B6E03059C07B16
:101570000E283DD1009803F027FF002103E02A1830
:10158000401C9170C0B21028F9D3688A694608835C
:10159000294606A808221431023003F083FD06AB69
:1015A000AA1C3946009803F021FF21E03059C07B86
:1015B0000F281DD1AA1C0A21009803F01DFF002F3F
:1015C00004D03946009803F01DFF11E000231A46AD
:1015D0003946009803F01CFF0AE0012F08D10B9850
:1015E00003F0F0FD01281CD0002801D00220059056
:1015F0006846007A002811D002AA0521009800E070
:101600000CE003F0F9FE6846027A60200243684667
:10161000027201233946009803F0FAFE05980DB0D6
:10162000F0BD3059C07B0228E2D16878002851D043
:1016300002210B9803F0EAFD305907224068A91CEB
:10164000173003F02FFDE878002804D130594068A6
:10165000407C01283AD0009803F0E0FE002837D003
:10166000297A009803F0E0FE002833D0009803F0B8
:10167000E1FE0121009803F0E3FE00282CD0305950
:101680004068417E00292BD0042929D0C17E027DEB
:101690001140C17630594068017F427D1140017789
:1016A0006846007A0028A7D1305902214268009884
:1016B000173203F0A1FE305941684031897B00297F
:1016C00013D004210098FFF79AFE91E7022004E06E
:1016D000062002E0082000E00320694608728BE73C
:1016E0000021C17630594068D9E70B21C1737FE7EB
:1016F00028050800F8B50546FD49123080B2496E4C
:101700002A2250430C1804202071241D03F09EFE51
:1017100000902046093004226946064603F0C2FCC8
:1017200003F094FE009004226946601C03F0BAFCAA
:1017300003F08CFE009004226946601D03F0B2FCA9
:10174000EC4A2946964600204E22EB4BB4465143C4
:10175000420066469619727836781202324376460F
:101760003668871C76187F00FF18F253401C022849
:10177000EEDBE249A80008580822611C783003F02B
:1017800091FC2802401C80B20D2103F03FFD0D2189
:10179000284603F061FEF8BDF3B5044681B004208D
:1017A00003F060FE0246D549A0000858002A25D063
:1017B0000299082270300B3103F074FC0299204624
:1017C00013318C460022CB4B4E21CB4E4843550063
:1017D00061466F1879783F78090239431F683F18CE
:1017E000AD197953521C022AF1DB20460299FFF70A
:1017F00081FF2046029903F03BFEFEBD6030C17BB5
:10180000490704D50621204603F038FEFEBD21021B
:10181000491C807B8DB2002807D07D2252012946C9
:10182000B74803F031FE032100E00121284603F010
:10183000EDFC0621204603F02DFEFEBDFFB581B074
:101840000398070A03F0BEFC0646102836D004DCD5
:10185000002E37D0082E04D130E0142E32D0152EB1
:101860000BD0A64CBD0060596030C07BC00607D5C8
:101870003D21384603F06CFD24E0022005B0F0BDA8
:1018800003F00EFE01281DD1032E07D19C480399B9
:1018900003F0CEFC60590121603081736059182239
:1018A0006030C17B1143C17360598030007C0028D7
:1018B00004D00721039803F0A9FCDEE7384602991B
:1018C000FFF76AFF0020D9E710B50C4603F0EEFDE4
:1018D00021888A00894989580968002902D0894BE2
:1018E000C968995010BDF8B50E461046150A03F0A8
:1018F00069FCAC00814F002817D0142815D015289A
:1019000009D038596030C07BC00606D53D21284635
:1019100003F01EFD09E0022008E003F0C1FD0128EC
:1019200003D131462846FFF7A3FB00203959096847
:10193000002902D0734AC9681151F8BDFFB50F469E
:101940001546110A6D4A8800125881B012681E4669
:10195000002A01D0D46803E06A4A002314581350C7
:10196000002C18D0201F4288674B9A4213D1008860
:10197000602810D12046403002898A420BD18088ED
:10198000002808D0A068002802D0204603F094FD6B
:10199000204603F097FD33462A463946019803F066
:1019A00097FD6BE7F8B5160A544CB5006059174619
:1019B00000281CD04030017E104603F027FC38463A
:1019C00003F000FC012802D006280FD108E061597D
:1019D0006031C87B020709D5F7221040C87305E0C3
:1019E00060598030417C304603F0B2FC0020F8BDE5
:1019F000F0B50646050285B0681C009080B201462D
:101A000002903F4803F014FC0121029803F0FEFB12
:101A100003F046FD394CB7000128E05903D060308F
:101A2000C17BE72214E06030807B002809D07D2252
:101A300052013348029903F027FD0321029803F075
:101A4000E5FB304603F04AFDE0596030C17BEF22F0
:101A50001140C173E0596030C17B4A0711D5FB22A8
:101A60001140C1730098ED1D82B225480024A9B22F
:101A700004230D3803F0D0FB4680047003F0D2FB42
:101A8000FCE600220121304603F02EFDF6E610B5FB
:101A90001046140A03F096FB0B280CD01749A0003F
:101AA00008586030C07BC00603D53D21204603F0B6
:101AB0004FFC002010BD2046FFF79AFFF9E770B5F4
:101AC00010460D46140A03F07DFB002828D0142888
:101AD00026D015281AD00949A00008586030C07BCC
:101AE000C00615D53D21204603F032FC18E0000069
:101AF000D8020800E0010020300008004C03080074
:101B0000240400003880002038830000022070BDCB
:101B100003F0C6FC012803D129462046FFF7DAFA74
:101B2000002070BDF8B507461D460E461446104607
:101B300003F048FB142806D02B462246314638468F
:101B400003F0D8FCF8BD0020F8BDF8B507461D46E7
:101B50000E461446104603F035FB142806D02B46DB
:101B600022463146384603F0CBFCF8BD0020F8BDD4
:101B7000FEB5124D019117461E46002400902946DD
:101B800003F01AFB050005D033463A460199009848
:101B9000A84704462046FEBD70B509480378021DDB
:101BA0000021084D07E0CC00165D012E01D124185C
:101BB000A560491CC9B29942F5D370BD8C410300A0
:101BC000040608007C5A0020FEB5514D01911746CD
:101BD0001E4600240090294603F0EEFA050005D0C9
:101BE00033463A4601990098A84704462046FEBD70
:101BF00070B5064614460D46104603F0E3FA240A73
:101C0000002836D04348301806D001281FD00C28B1
:101C100021D00E2827D11AE02878002829D03E4D5F
:101C2000A600A859428E002A23D041230121204634
:101C300003F06CFCA95900204886A85900680028C8
:101C400017D1200201210E3003F0E0FA11E02878CC
:101C5000002808D10DE0204603F05EFC0A2808D1D8
:101C60002878002801D0412100E00021204603F01F
:101C700059FC002070BDF8B515460C46104603F01F
:101C8000A1FA2F0A00282CD0234DBE00A859408E5F
:101C90000D280BD02148A2780088217983B23846DC
:101CA00003F046FCA859408E00280CD0207800286C
:101CB00019D04123A8590121428E384603F026FC51
:101CC000A95900204886384603F026FC012803D095
:101CD0004621384603F026FC22796188384603F015
:101CE0002DFC0020F8BD0023E4E7F0B50D480E23DD
:101CF000021D0B4C0578002107E0CE00975D9F4246
:101D000001D13618B460491CC9B2A942F5D3F0BD5F
:101D100028490300F4FBFFFF540508006001002080
:101D2000AC5A002004060800F3B50546204980009F
:101D30000C582802401C87B281B00026384603F0B8
:101D400041FA152807D19520005D002803D003F043
:101D5000A7FB002818D023464033988AD98A8842A6
:101D600000D808464004020C99823946114803F015
:101D70008BFB012194200155384603F047FA80344B
:101D8000607D002805D101E01F26F8E7A07D00282E
:101D90000CD000206075A075022003F063FB0028C2
:101DA00004D029463046029A03F0CEFBFEBD000067
:101DB0004C0308002304000005200007018830229E
:101DC00011430180018803221143018070470520DF
:101DD0000007018830229143018001888908890029
:101DE00001807047FEB50020854E03462822002161
:101DF000424392198C00491C13510A29FADB401CFA
:101E00000428F3DB01F0B0FF7D48002208380260AF
:101E10004260154600247B486900475A0120A040D3
:101E200080B207421CD0282068438019A100405886
:101E3000411C19D0002810D0C117224603F076FAB1
:101E40002A0103F073FA6E4B083B1A685B68104373
:101E50006B4A1943083A10605160641C0A2CDDDBA0
:101E60006D1C042DD6DBFEBD0095019400BEE3E79A
:101E7000F8B5164604460D460A461F4601200021C5
:101E800003F054FA220103F051FA5D4B083B1A6843
:101E90005B6810401940084300D100BE032C00D1FC
:101EA0000424594960014018690008183E43C6805F
:101EB000F8BD70B504460D460A460120002103F026
:101EC00035FA220103F032FA4D4A083A1368526893
:101ED00018401140084300D100BE032C00D1042457
:101EE0004949600140180121A940818070BD70B549
:101EF00004460D460A460120002103F017FA22018C
:101F000003F014FA3E4A083A136852681840114028
:101F1000084300D100BE032C00D104243A496001DB
:101F200040180121A940418070BDFFB581B00C4629
:101F300005460A461F46012000210A9E03F0F6F9D5
:101F40002A0103F0F3F92E4B083B1A685B68104036
:101F50001940084300D100BE002E2146284602D079
:101F6000FFF7C5FF01E0FFF7A4FF3B4621462846E7
:101F7000039AFFF77DFF05B0F0BD70B5012421463F
:101F8000133881400D4688B200F02AF884401F487B
:101F9000C189A9430C43C48170BD10B504461338F0
:101FA00004280BD82046FFF7E8FF1549A000A03110
:101FB00040188038406B002801D0804710BDE106F2
:101FC000C90E012088401249086010BD1320E4E7C3
:101FD0001420E2E71520E0E71620DEE71720DCE713
:101FE00000280AD0411E4840C003010C002001E037
:101FF0004908401C0029FBD100E0102080B2704746
:1020000028900020BC5A00200030005000140050DE
:1020100080E200E010B5FFF7DAFE052109078888A5
:10202000174AC30B104618D0164B1C88640714D5EA
:102030001178890710D5198802221143198019884F
:102040004908490019804468002C05D0985E042195
:10205000595E0A229A5EA04710BD8988C906FBD541
:102060001178C907F8D0084901228A800A8880239C
:102070009A430A8080680028EED0804710BD000097
:102080005080002000020050000100500843012150
:10209000890303460B432E490B802E4B18430880BF
:1020A000092002434A80704729490A880F239B016F
:1020B00000079A43800D02430A807047244826494E
:1020C000028802231A430280491E02D30288920723
:1020D000FAD400210181408970470AE000BF00BFA7
:1020E00000BF00BF00BF00BF00BF00BF00BF00BFF8
:1020F00000BF401EF2D2704770B502225102044662
:102100004E003046FFF7C2FF1420FFF7E6FF002C19
:1021100001D0092000E00020FFF7C6FFFFF7CEFF47
:1021200005460120FFF7D9FF022200213046FFF7C4
:10213000ADFF002C01D0092000E00020FFF7B4FF24
:10214000FFF7BCFF4019024A0021118070BD00005A
:102150000015005001400000A086010008B589214B
:102160000520000701810121634A4903118001888C
:1021700080221143018001888908890001805F481D
:10218000018A02221143018200F0DEF903F0E2F934
:1021900003F0E6F90020694601E00888401C088049
:1021A00008889128F9D308BD08B555490020088052
:1021B0004880554A534BD380FF23D2331381C880C4
:1021C000C3215180514A082111806946088003E0EB
:1021D0006A461188491C1180694609889129F7D3FC
:1021E0006946088003E06A461188491C11806946E7
:1021F00009889129F7D3694601E00888401C0880C6
:1022000008889128F9D308BD414A50809180012067
:102210001080D088C007FCD17047F1B5FFB0FFB087
:1022200094B011AC35480494008AA41C1090FFF7B8
:1022300095FF334801880F9141880E913249CA8831
:102240000D920A890C92C2880B92408B0A903148F9
:102250004088099048888446FFF7A6FF00252B4652
:10226000FF2111A8FFF7D0FF00210A460846049E6F
:10227000275C365C7E40F607F60F8E401643491CFD
:10228000C9B2F2B2082906D1FFA9C96C4A556D1C22
:102290000021ADB20A46194FC82620373E801030C3
:1022A000FF2680B2B600B042E1D95B1C9BB2022B84
:1022B000D6D312491098088214490020088010488B
:1022C0000F9901800E9941800F490D9ACA800C9A8E
:1022D0000A810B9AC2800A9A42830E4A099850805A
:1022E00060464880052000070188802291430180D4
:1022F0007FB07FB015B0F0BD00020040E03000506C
:1023000000240050808000006028005020200050F1
:10231000003500500026005010B53D484178007847
:10232000FFF7C7FD10BD10B5394841780078FFF7B9
:10233000DEFD10BDF8B50E46154635490278079FFB
:102340000A7040781C464870FFF7EDFF0520000733
:1023500081880122D202114381802E4801884908D8
:10236000490001800188FF2281329143F20111432B
:102370000180018840229143AA0111430180018814
:1023800004229143A200114301800188022291435B
:10239000069A520011430180018801229203914361
:1023A000BA0311430180018818229143089AD20090
:1023B000114301800188012211430180F8BD1549B4
:1023C0000A88520852000A800A88FF2381339A4300
:1023D000C00102430A800888012210430880704728
:1023E00010B50C4900230A88D205920F012A01D9A1
:1023F000040C8C80488008888004FCD50120C880AB
:10240000012A01D9888803044888C01810BD00003B
:10241000008000200012005030B4344C334934485E
:10242000603409E043681A780A6002685B1C521E37
:102430000CC00838002A05D0A28B9207D20FF1D128
:1024400030BC7047002242604B680224A3434B60BB
:1024500081680029F4D0826030BC0020084710B5A4
:10246000224881680907090F01291AD002291CD0C6
:10247000042917D00C2914D11D4A117E012910D12D
:1024800041690906C90F0CD00021D1601161838810
:102490005B085B0083805369002B02D001205161EF
:1024A000984710BD00F004F810BDFFF7B5FF10BD50
:1024B0000F490E4809E002680B691A70CA685B1C74
:1024C000521E0B61CA60002A04D04269D207D20FA3
:1024D000F1D1704700220A6143685B085B004360EA
:1024E0004B69002BF5D000204A61184700110050BD
:1024F0005C80002030B58F498F48CA05148880233E
:102500001C4314808D4C65892D0701D4491EFAD2D5
:102510008B4C012121608B4C018821808A494088A5
:10252000088010889843108030BD002070477047A5
:10253000704770470020704701218907086B072208
:10254000104308637047704730B581497F48086081
:1025500080494C2008807F4C7F4B203C238280495F
:102560007E48488080487F4901807E4919314180FA
:10257000222141818121890001827C4941827C495B
:1025800001837A4911314183774A7A492032918017
:102590004122794912018A80784ACA80774D1035E4
:1025A000CD810A824A82921C8A826A1FCA82FF22D5
:1025B00046320A83724A4A83724A5921118071490C
:1025C000714D20310D8043254D80704D5582D522AF
:1025D0008A80FF22D3320A816D4A4A816D4A8A81FC
:1025E0006E4A6D4911805B496D4A60394A80CA88DC
:1025F00010252A43CA80644A0A3A0A81554D694A1D
:10260000403D6A80638208224A814F495D4A0988B9
:10261000403A11824B49644A09881180634909781C
:10262000002901D03021018330BD4008704700B53A
:102630008BB05F4A42625F4A82625F4A42615F4A90
:10264000C2625F4A02605F4A02625F4A42605F4A5A
:10265000C2613F4A3D48002110603D484038026B4E
:1026600003129A430263426B1F231B049A43032302
:102670001B04D218426356480268C3129A43026090
:10268000026803139A43026068464154491CC9B268
:102690002829FAD3014628224E4802F003FDFFF70D
:1026A00053FF02F041FD4C490880002002F042FD3A
:1026B00002F046FD0BB000BD10B525492348086067
:1026C00023484038416B1F22120491430322120415
:1026D0008918416300060168C908C9000160052026
:1026E0000007018989088900491C018101890822A4
:1026F0001143018111484189890504D50188782257
:10270000914308310180FFF71FFF3448006F0078C4
:10271000002804D0324800880E496039C880012062
:1027200002F03EFD10BD2149012008700E49302005
:1027300008837047A0860100087F04002000005035
:1027400000800040560208004A0308004C05540768
:1027500080000040602C00507F7F0000AC2900000A
:10276000002200500909000000240050220400004B
:1027700030D00000EE110000002500502E020000B5
:1027800044200000402800500D9500000242000047
:10279000E4DC00001092000053780000002A005092
:1027A0008B1000009DD5000000260050788000208E
:1027B0002B2500202F25002035250020392500203D
:1027C0003125002047250020332500202B2600201E
:1027D000000200402000080078040800E00100200A
:1027E0005204080070B50125AD07AC6B2046FEF71A
:1027F00062F9D34902F0A6FD27221201511A00D135
:102800000121D04A50601160286B08218843084399
:102810002863CD480460CD480068002802D0A0425B
:1028200000D200BE70BDFFB500256A461570C849CC
:10283000096800297CD00A464032937C002B77D06F
:10284000C44CC54B012813D0098D26460907803E8C
:102850000127366FC90EFF04C919715A6E46890BDC
:1028600031713179002963D03179012906D011E025
:102870006E46E16C3170002199700BE011894E2693
:102880007143B64E25688919695A6E460D0AD17C86
:10289000691A3170317800294BD0B14DB049603D93
:1028A000AE6E097B2E254D43B446751905E0491CD3
:1028B0004907490F2E254D4365446E463678761EEE
:1028C00037063F0E6E463770F1D1AD786E06760E44
:1028D0006D462E712D79AE06B60E6D462E722E25E2
:1028E00069439E4DA469463D4919615A6D46C90622
:1028F000C90F2973012805D000209870287B002873
:102900000FD10BE0287B002802D1287A00280FD0B5
:10291000107D00280CD101201AE009E0287A002857
:1029200006D0107D002803D1D07D08210843D07542
:10293000FFBD0128FCD0002D02D09878002806D0D9
:10294000107D002803D1D07D08210843D0750020D8
:102950009870FFBD10B5052000074189890708D090
:1029600041898908890041817E494A88520852007C
:102970004A800189802211430181018A0422914306
:102980000182818A8907FCD502F0F0FD01208007D1
:102990000169490700D500BE01694907FCD510BD92
:1029A000F8B56D4EF08800282AD101200527F08067
:1029B0003F077889800720D0B88A400701D501F009
:1029C00043FA684D2888802108432880664CFF2000
:1029D000608004202080FFF7EFF97D21C900E088A6
:1029E000A288000480188842F9D905202080B08888
:1029F000788029888020814329805C4910200860E4
:102A0000F8BD70B5FFF7E3F9FFF7A4FF524C0026BD
:102A10005748E68001894908490001810120800763
:102A2000816904221143816102F0A6FD4F49102003
:102A300080310125086002F0A5FD02F0A9FD49489A
:102A400026704089800510D5607800280DD149484E
:102A500065700088C00708D10120FFF74DFB8B216E
:102A60008900884201D90220607070BD10B502F063
:102A700095FD00F05DF838490120087010BD10B5D3
:102A800001208007008A000601D500F051F810BD32
:102A900010B50120FFF7C7FE02F086FD10BD10B58E
:102AA0000124A407208A000718D50220FFF7BBFEE7
:102AB00002F080FD2068400040086100084320606B
:102AC0002068C00FFCD11F48803001680906090E3C
:102AD00001D00121016020490420087010BD70B5AB
:102AE0002548008885062548AD0E44681948006FC2
:102AF0000078002802D1284602F062FD20480089B3
:102B0000154EC00507D520060BD5E00709D028468D
:102B100002F05CFD03E0200603D5E00701D00320AE
:102B20003070200403D5E00501D50220307070BD5F
:102B300010B509490120C87002F04EFD10BD00001B
:102B40007102000040000040888000208480002046
:102B50006C030800E00100207A8000204A00080091
:102B600038030800200000500016005000E200E08A
:102B700000330050001500500020005000020040BB
:102B8000002C0050FEB5604C0026606D374600906A
:102B9000FDF7BDFE5D4D002802D12879022801D144
:102BA00000200090FDF7B1FF00280ED102F01AFDC1
:102BB00000280AD055480126C078002805D00525F0
:102BC0002D07A88AC00701D004269AE002F07CFAFB
:102BD00000287DD14E488069002801D0606D0090AA
:102BE0004A48009C8178684602F002FD00286FD0B8
:102BF00001208007406940066AD4444881786846CD
:102C000002F05CFA00287CD00020FF2100942D31D6
:102C100001240190A407206A8842FCD33B488178B4
:102C2000684602F0E5FC00286BD06069400668D475
:102C300036488178684602F041FA002861D0009851
:102C4000002804D00199002901D0401E009031498C
:102C5000002209788320022900D1B5202E490B7863
:102C6000012B00D121300A70E26B0F21920A9202EF
:102C70000A43E263E16B294A800211400143E163A8
:102C8000E06B3721C002C00A89050843E063009861
:102C90000426002801D0001D0090C002642102F02B
:102CA00051FB002800D0401E1D49086017490979D2
:102CB000002900D0012102F0A1FC1A48C06A804717
:102CC000FDF73AFF00280AD028883021084300E0A9
:102CD00017E0288028880321084328800127206BDB
:102CE0000004C00FFBD010480168C905FCD5002FB7
:102CF00001D0FFF76CF802F087FC28898021884317
:102D000028813046FEBD000060020020C606080093
:102D1000A8050800540208007B800020FF03E0FFA4
:102D2000848000201C07080000020040FFB5002638
:102D300085B0154642486A46344637461082002917
:102D400004D0042203A802F0ADF902E00020C04341
:102D500003900020039916E00A460241D20710D0E2
:102D60000F9A03019A181379022B02D0102B05D168
:102D700002E0761CF6B201E0641CE4B21289D219BA
:102D800097B2401CC0B2A842E6D30094002332465A
:102D900001970E99059802F03DFC00242AE0039962
:102DA0002141C90724D00F9927017E18F18802A874
:102DB000009101900F983279C359059831890088A4
:102DC00002F02EFC002813D17189002910D030792F
:102DD000022807D10F980222C05904A902F05CF919
:102DE00000280DD0684671890089F26802F01EFC47
:102DF000641CE4B2AC4201D20028D0D009B0F0BDCE
:102E0000F0684078FF2809D00899002906D0059974
:102E10006A4609781289511A089A11546A4610892B
:102E2000411C11807189F26802F000FC0028DFD19A
:102E30006B4602220121188902F0FEFBD8E7000050
:102E400003280000F8B514460F461E460546428882
:102E500001880623204602F0DFF90446287902F0B3
:102E6000F1FB208027716680204602F0DBF9F8BD77
:102E700070B51446428800790D46010204232748A4
:102E80000C3102F0C9F9002D01D0132100E012210C
:102E90000170448002F0C6F970BD38B52020694643
:102EA0001F4C08706088002800D0401C0B4680B280
:102EB0000122002102F0C0FB6088002800D0801CA5
:102EC00080B2402102F0C4FB0024164D09E04019F5
:102ED0004069002803D0641CE4B2804701E0641C10
:102EE000E4B220461C214843295CFF29EFD138BDBC
:102EF000F7B5009800240F460A4E050208E02B465D
:102F00000343641CE4B2FAB20299009802F010FB89
:102F10001C206043305CFF28F1D1FEBD0D30000065
:102F2000F6040800FC5B002010B50E21104802F0EA
:102F300095FB1049362002F097FB0121362002F064
:102F400065F910BD70B50A4C0546628821880223D8
:102F5000094802F061F9058002F064F9E088002177
:102F600002F088FB0021362002F050F970BD00000D
:102F70008C800020C45A002009D80000FEB5DA4C2D
:102F80001F460D4662800023D84816E0914212D1B8
:102F90003118496800290ED01C214B43181840688D
:102FA000019000922A78A01D6B68A968FFF7BEFE09
:102FB000060008D011E05B1CDBB21C265E43815D7D
:102FC000FF29E3D112E028782072E088002102F086
:102FD00051FB0021362002F019F90123362239462F
:102FE000C34802F019F9067002F01CF90020FEBD7A
:102FF00070B51D460C46088802F042FBBA4AFF280D
:103000001071158009D0A178D08802F033FB02211D
:10301000362002F0FBF8002070BDB54BB44A5B1CB3
:1030200009328921B048FFF70DFFF4E7F0B5AE484B
:1030300015460C460279190A8FB091427DD123883A
:10304000C188007A591A8EB2B04278D90AAA0EA95C
:10305000184602F01BFB6846018D2046A54A083041
:103060000190914218D1208800F05BF907A902F085
:1030700013FB6846808B4005800F012800D000209C
:10308000214600F039F905062D0E2DD161882088E2
:10309000019A02F0CBFA26E00020944F15E0A942F5
:1030A00011D1D119896900290DD0019900911C25F0
:1030B0006843C01985696388A288E1793046A847CA
:1030C000050008D010E0401CC0B21C2141430A4654
:1030D000B95CFF29E3D1A288002AD7D06188208873
:1030E000019B02F0DFFA0546E079002828D0002D88
:1030F00026D1208809AA02A902F0DAFA68460089D6
:10310000801D83B27848428801887948C01D02F04A
:1031100083F8074668460289B81D099901F0C2FF85
:103120007148007902F08EFA38807E806846008906
:10313000B880384602F076F802E00AE0FFE7822520
:10314000A079012805D16848218800792A4602F033
:10315000B5FA00200FB0F0BD70B5634C0E4608788C
:1031600021886288122802D0132808D018E060480D
:103170000623001D02F050F80546608906E05C4811
:103180000623801D02F048F80546A0896880207952
:1031900002F058FA288070782871284602F042F828
:1031A000002070BD70B5504D0C46287902F04AFAE7
:1031B0002188884207D1E8886188A21D401880B222
:1031C000A18802F033FA002070BDFEB5464D0C46D2
:1031D000287902F037FA2188884223D1E88861886B
:1031E000A21D401880B2A18802F020FAE888618808
:1031F000401880B2297A00F0B3F86A4601A902F0BB
:1032000057FA00980088012801D08B260BE0E88847
:103210006188401882B200213348FFF729FE608898
:10322000688112E0812632486A8829880623001DB9
:1032300001F0F2FF074660887880287902F002FAF0
:1032400038803E71384601F0EDFF0020FEBDFEB52E
:10325000254D0C46287902F0F5F92188884223D1C2
:10326000E8886188A21D401880B2A18802F0DEF9CA
:10327000E8886188401880B2297A00F071F86A46BF
:1032800001A902F015FA00980088022801D08B26C7
:103290000BE0E8886188401882B201211248FFF7EC
:1032A000E7FD6088A88112E0812611486A88298894
:1032B0000623801D01F0B0FF0746608878802879DA
:1032C00002F0C0F938803E71384601F0ABFF0020B3
:1032D000FEBD10B5044A180A1279904202D108883E
:1032E000FFF730FE002010BD8C800020FC5B00202A
:1032F00001D800000229000002464B880020022B62
:1033000001D00D2070470989002A05D00029F9D085
:103310000129F7D0812070470029FCD00229F9D17A
:10332000704770B586B0044601F0FAFF05461D4EA1
:103330000EE06A4604A9204602F0A8F96846008813
:10334000B04203D1641CA0B206B070BD641EA4B22A
:10335000A888A04202D8E888A042EAD20020F3E779
:10336000F0B585B0044601F0DBFF0E4E0546FF3692
:103370000C4F0FE06A4604A9204602F087F9684620
:103380000088B04202D1204605B0F0BDB84207D057
:10339000641CA4B2A888A04202D8E888A042E9D25E
:1033A0000020F1E70328000010B500F027FA012003
:1033B000FDF7A3FA10BD0C2250430C4A10B580183B
:1033C0008078FF2803D0088800F022F810BD01F0B3
:1033D00018FD10BD10B500F0E1F9002801D001F092
:1033E00010FD10BD10B501F00CFD10BDB480002023
:1033F0000021F94A05E0834201D101207047491CB0
:10340000C9B20C234B43D35CFF2BF4D1002070478F
:10341000F8B505460024F04E0AE0801981680029BD
:1034200004D0641CE4B22846884701E0641CE4B27E
:1034300020460C214843315CFF29EED1E64E0024A2
:103440000C3609E08F19B968002903D0FFF7D0FFC7
:10345000002809D0641CE4B20C216143705CFF2891
:10346000F0D10024DD4E10E0641CB968E4B22846B7
:103470008847F1E780190169002904D0641CE4B28F
:103480002846884701E0641CE4B220461C214843DA
:10349000315CFF29EED1F8BD70B5CF49D04C0E4656
:1034A0000C36CE4D0DE052185268002A07D0C2B239
:1034B0000C235A4351184968401C60702DE0401C91
:1034C000607060780C2242438B5CFF2BEBD10AE0EA
:1034D00089194968002903D0FFF78AFF002809D01D
:1034E0002078401C207021780C204143705CFF281C
:1034F000EED117E020780C21414389194968401C1E
:1035000020700AE04919C968002909D0C1B21C22FB
:1035100051434919C968401CA0708847002070BDFC
:10352000401CA070A0781C2141436A5CFF2AE9D1AD
:103530000020A07060702070012070BDFFB581B0C8
:1035400004461E46154618460A9F02F00FF90090E1
:10355000267021463846009A02F0B6F8002803D0BB
:1035600000BE002020700BE02278AA4200D900BEE5
:10357000AA4200D32A4622700099029801F092FDD7
:10358000009802F0C9F805B0F0BDF0B5944899B0C4
:10359000C06800285DD1502332220D21914801F0EE
:1035A0003BFE04468E4E0025F0600E2020706570B4
:1035B000A580A020A081E0810720207401206074F4
:1035C000A57421460B2014310090481E20231C2294
:1035D00017910190FFF7B2FF21460C203131009086
:1035E000481E20231F2218910290FFF7A7FFF068C2
:1035F0001A22C17C2030571A007C1D210E1A684601
:103600000574002F01DC002E23DD3E20694608747E
:1036100006AA04A9022002F057F8002803D000BE31
:103620006846057415E06846017C002911D08F4278
:1036300005DBE27C179806AB1218019807E08E4272
:1036400007DB2034227C189806AB1218029800F091
:10365000E3F86348C06819B0F0BD70B5604E044629
:103660008500361D7059002814D121020A23322208
:103670005D480E3101F0D0FD0A210170002C00D010
:1036800000BE7051E0218180A02141800021C180D5
:1036900056490181705970BD70B5514DA868002818
:1036A00021D15048222332220D210A3801F0B4FDE5
:1036B000032101700446A8600A2047496070102267
:1036C0002139A01C01F0EEFC002161822175617599
:1036D0001720E082A0202083E0206083A18343485C
:1036E000E08320342170A86870BD3E4810B50123E6
:1036F00032220D210B3801F08FFD0221017001F003
:1037000091FD10BD364810B50C21183001F0A6FF10
:1037100033490020183101220C2343435B18401C1D
:1037200000061A71000EF7D02B493220183101F033
:103730009BFF0021322001F069FD10BD70B50D46E0
:103740000102294814462C2332220C380E3101F094
:1037500063FD014620310D724C7201F063FD70BDB6
:1037600013E710B5FFF711FF01F05CFD1C490020C5
:10377000C8600221322001F049FD10BD10B5044699
:10378000FFF76BFF01F04EFD154A0020A100121D4E
:1037900050500421322001F039FD10BD10B5012137
:1037A000322001F033FDFFF777FE10BD74E610B54F
:1037B000FFF772FF01F036FD09490020886010BD57
:1037C000074A002124324B00D35C834210D14800C9
:1037D0008018407870470000685B0020FC5B002088
:1037E0009C8000200E3400000E3800002A030000E8
:1037F000491CC9B20A29E6D30120EBE710B5002025
:10380000FF230E49012442008B545218401CC0B2C1
:1038100054700A28F7D310BD70B50646481C1070C6
:10382000092015460C46507022461946A81C01F086
:1038300039FC3078A41C0019307070BDC0800020A5
:1038400010B5104601F0BEFC002809D10123322238
:103850000D21594801F0E0FC0121017001F0E2FC6A
:10386000002010BD70B50D78544C0E2D23D008DC0F
:10387000012D14D0022D0CD0032D16D00D2D08D102
:103880000BE00F2D09D0102D07D0112D05D0122DD2
:1038900003D02568002D00D0A847002070BD4878CF
:1038A0000028FAD1FFF783FFF7E748780028F4D122
:1038B000FFF790FDF1E7487801F008FBEDE7F8B578
:1038C0001C4610460E4601F07DFC022824D1240A35
:1038D00000D000BE0C202746474339483D18AC7045
:1038E000FF2C15D00121E9700521322001F08EFC5A
:1038F00033483188C153707A68713146A81D062259
:103900000A3101F0CFFB002211462046FFF716FFD7
:103910003146204601F0B5FA0020F8BD70B50C46DE
:10392000097816460A2908D0244D2968002902D0B2
:1039300021462C68A047002070BD104601F042FCD3
:103940000428F8D160780028F5D10521304601F02F
:103950005DFCF0E710B510460C4601F033FC03287F
:1039600003D0052801D0042802D1204601F0B2FA84
:10397000002010BD10B510460C4601F023FC0128B4
:1039800008D12078002805D1FFF710FF002801D0CA
:10399000FFF728FD002010BD00207047FEB51C4633
:1039A000064D089B07262D1D6F4668C71346224605
:1039B00000F027F8FEBD000002340000905B0020FC
:1039C000B4800020FFB583B01E4F002401AEA000DC
:1039D00000963D5803A80FC8A84700280ED0641CC5
:1039E000032CF4D3174C241F2068002803D003AD08
:1039F0000FCD2468A047002007B0F0BD68460079CD
:103A0000FAE7F8B5089C9C46079D0346002C16D0A3
:103A1000641E14D40C4FE600AE5B9E4201D0BE4241
:103A20000BD1E3005B195C68002C08D0134662469A
:103A3000A047069908700020F8BD641EEBD5012050
:103A4000F8BD0000E05B0020FFFF000010B505207E
:103A500000070089000608D501208007006B0004DC
:103A600003D401F031FBC00701D0002010BD0120BC
:103A700010BD70477047000070B50D460446FFF753
:103A8000E5FF002807D06C482A46201880B2322172
:103A900001F0FAFC70BDFCF73DFF674832220423B9
:103AA0001146801E01F0B8FB4580047001F0BAFB9E
:103AB00070BDF8B5614C069D06190024002E26D075
:103AC000012E0BD05E4B1A46283A022E0AD05B49D3
:103AD000C91E41180A292BD30120F8BD00F082F835
:103AE00028703AE00878461E092E0ED88000001F84
:103AF0001058544FB8422FD1B0001B5813504A8869
:103B000008781146FFF7B8FF26E000BE24E04A8897
:103B1000002A0BD04C48824200D300BE08784649A8
:103B2000401880B2322101F0AFFC15E000BEF5E78D
:103B30004249891E4018C0B2411E09290BD886008F
:103B4000B1188039C86F002806D0CC67F1188039C9
:103B5000CC67804700E000BE2C700020F8BD0A460C
:103B6000010010B538480ED0814200D300BE344B5E
:103B70000020283B84001C59002C06D0401C0A2839
:103B8000F8DB002010BD00BEF1E784001A51401C94
:103B90000406240EF5D02046FFF76EFF204610BD28
:103BA00070B50446401E09281BD82548A1002838B6
:103BB0000D18803DE86F002813D0244EB04210D07D
:103BC0001D483221201880B201F032FB1A483222FF
:103BD00004231146401EEE6701F01EFB047001F045
:103BE00021FB70BD10B508780C46411E09291FD86D
:103BF00082001348121F28388258144B9A4205D16C
:103C00000022890042502830425012E0890040587A
:103C10000C4988420DD1322204231146064801F096
:103C2000FBFA217801706188418001F0FBFA00E025
:103C300000BE002010BD000003C80000FF37FFFFDA
:103C400000810020753A002030750000733A002092
:103C500010B5362110233222880201F0DDFA00214E
:103C6000144A03E0362B0DD0491CC9B21C234B4328
:103C7000D35CFF2BF6D1002141608160818101F08E
:103C8000D1FA10BD1C2359438918097A0170F2E753
:103C900070B50546042332223621074801F0BCFAEC
:103CA000044605803620FFF78BFDA070204601F00A
:103CB000B9FA70BDFC5B002002D8000010B51046B8
:103CC0000C4601F07FFA012809D132220123114666
:103CD000900201F0A1FA2178017001F0A3FA00200E
:103CE00010BD00207047FEB51C46089B0226044DFF
:103CF0006F4668C713462246FFF783FEFEBD0000ED
:103D0000EC5B002030B5144B1C680825C907AC4398
:103D1000090F0C431C6019680424D207A143520FF9
:103D20001143196019680222C0079143800F0143B3
:103D300019600A480168C022090A0902114301609A
:103D400030BDFF2006490130086070470548006813
:103D5000002800D0004770470034005008E400E01D
:103D600000E100E00480002070B563480022816A11
:103D7000D243002901D0114600E00121CB170C0CE1
:103D80001B0423430C0481625C490D684E682C437C
:103D900033430C604B60C36A002B01D0144600E033
:103DA0000124E317E50B5B042B43C4620D68640434
:103DB0004E682C4333430C604B60436B002B01D0A7
:103DC000144600E00124E317650BDB042B43446336
:103DD0000D68E4044E682C4333430C604B60036B66
:103DE000002B01D0144600E00124E317A50B9B042F
:103DF0002B4304630D68A4044E682C4333430C60CA
:103E00004B60C369002B01D0144600E00124E31786
:103E1000650EDB012B43C4610D68E4014E682C4341
:103E200033430C604B604369002B00D10122426197
:103E3000D017D30E400118430C6852014B6822433F
:103E400018430A60486070BDF8B505242407208A2D
:103E50000226B0432082A08A0007FCD5284841886A
:103E6000FF22013211434180FCF7E6FF618A2020E6
:103E70000143618200252580224A08211180618A40
:103E800001436182608A802108436082208AB043B6
:103E90002082208AB0432082A08A0007FCD501201E
:103EA000032424020823224601460090FEF73DF831
:103EB00007232246002101200095FEF736F806234D
:103EC0002246032101200095FEF72FF8052300224A
:103ED000022101200095FEF728F80022092307217E
:103EE00010460095FEF721F800220A23052110460E
:103EF0000095FEF71AF8F8BD2890002020900020C9
:103F0000200000500033005070B505460C460220DA
:103F1000FEF755FAFEF700FA052128044906401875
:103F200021020843FEF75CFAFEF7FDF970BD1FB5EC
:103F300004460120694648730873002000900190F0
:103F4000034602460290012103A8FEF7F3F901217E
:103F50002020FFF7D9FF00212120FFF7D5FF032103
:103F60002220FFF7D1FF01212320FFF7CDFF002101
:103F70002420FFF7C9FF03212520FFF7C5FF0021FB
:103F80002620FFF7C1FF05212720FFF7BDFF1020E6
:103F9000044321462C20FFF7B7FF02212D20FFF715
:103FA000B3FF1FBD10B504460120FEF708FAFEF767
:103FB000B3F90B2000022018FEF712FA0020FEF7DA
:103FC000FEF90020FEF70CFAC4B2FEF7ACF9204669
:103FD00010BDE7E710B500231A4601214A2000F082
:103FE00015F810BD1CB5044600206946087008711C
:103FF000032000F06FF801A9042000F06BF8694677
:10400000087920700878607000201CBDF0B57B4DE9
:104010002B7005231B079C88202634439C80784CFA
:104020000023A381764B6126603B1E801E880627F5
:10403000BE4349000E431E8019881026B143120169
:10404000114319808105890D99800121A181218A5F
:104050008906FCD46870F0BDF0B5694B684C684DBA
:1040600000200822603B66492034203D1A820E8AD7
:104070007607FCD50E8AB606FCD42688AF8AF607EA
:1040800005D0604E401CB042F0D30120F0BD0020AE
:10409000F0BD30B50104594C0B0E594922786039F6
:1040A000012A02D0022A0ED110E0554A002595813E
:1040B000C5036478ED0F25438D8001249481148A13
:1040C000A406FCD40B82C0B2088230BD0202120EDC
:1040D0000A82F7E770B50D460646FFF7BDFF0028D8
:1040E00001D0012070BDEFF31084012080F310880F
:1040F0003046FFF7CEFFFF2041490130603908828A
:10410000002C10D0012080F310883D48028B002A3B
:10411000FCD0098A2970018A4907FCD5018A8906E1
:10412000FCD4002070BD0020EDE7F8B515460E4622
:104130000746FFF791FF002801D00120F8BDEFF3FB
:104140001084012080F310883846FFF7A2FF2C4B23
:1041500000212B48603B05E0725C1A82028A5207FC
:10416000FCD5491CA942F7DB002C0AD0012181F3C0
:104170001088018A4907FCD5018A8906FCD40020F1
:10418000F8BD0021F3E7F8B514460F460646FFF7E1
:1041900063FF002801D00120F8BDEFF31085012056
:1041A00080F310883046FFF774FF154A0021603A0B
:1041B000FF231348013305E0068AB607FCD51382B6
:1041C000491CC9B2A142F7D3002D04D0012181F3CB
:1041D0001088002108E00021F9E7038B002BFCD0B8
:1041E000158A7D54491CC9B2A142F6D3018A4907F8
:1041F000FCD5018A8906FCD40020F8BD0880002087
:1042000060130050400D030010B500231A46012131
:104210004820FFF7FBFE10BD08B50020009061218B
:1042200068460170A0214170022269460120FFF713
:104230007CFF08BD38B5044600200090E1216846A7
:104240000170A0214170022269460120FFF76DFF35
:10425000022221460020FFF796FF002038BD000013
:1042600010B50446002201201146C002FDF70EFFE2
:104270000020FDF719FFFDF721FF8005800D20804C
:10428000002010BDF8B5FA4CFA4D617D661C480659
:10429000070E00200F2913D2694608806846FFF7F1
:1042A000DFFF69460888627D81089155617D80073E
:1042B000491C6175800FA968B8400843A8603EE0BA
:1042C0000020694608806846FFF7CAFF69460888EB
:1042D000627D81089155617D8007491CC9B2617575
:1042E000800FAA68B84010438855617D020A491CB6
:1042F000C9B261758A55617D020C491CC9B26175EC
:104300008A55617D000E491CC9B288550020607530
:10431000A8601A2332223621D74800F07DFF0646D6
:10432000D648611C00883080052070801420B08041
:104330000246B01D00F0B6FE304600F073FF32209A
:1043400000F040FF052804D0322000F03BFF042895
:1043500009D16878002806D0C548C949001F40889F
:10436000FFF7FDFBA880F8BD10B504460820FFF755
:1043700030FE20700920FFF72CFE60700A20FFF746
:1043800028FEA070002010BD38B5B94C0020617D1A
:1043900012291AD200906846FFF7E6FF6946627D4F
:1043A0000978601C1154617D491CCAB26275694666
:1043B00049781154617D491CCAB262756946897891
:1043C0001154607D401C607516E060751A2332221E
:1043D0003621A94800F020FF0546A848611C008846
:1043E0002880052068801420A8800246A81D00F0BF
:1043F00059FE284600F016FF322000F0E3FE0528A3
:1044000004D0322000F0DEFE04280AD1994C6078F6
:10441000002806D096489B49001F4088FFF79FFB65
:10442000A08038BD10B50446022200219002FDF79D
:104430002DFE0120FDF738FEFDF740FE8005800DC2
:104440002080002010BD7FB5894C0026607D651C52
:10445000002806D003281AD0082802D00B2843D100
:1044600043E068460096FFF77FFF6846617D00786D
:104470004855607D401CC1B261756846407848551A
:10448000607D401CC1B261756846807828E068464E
:104490000096FFF769FF6846617D00784855607DAA
:1044A000401CC1B26175684640784855607D401C2B
:1044B000C1B26175684680784855607D401C607562
:1044C0006846868001A8FFF7ADFF68468088627D58
:1044D00081085155617D8007491CC9B26175800F03
:1044E0004855607D401C60756AE068460096FFF79D
:1044F0003BFF6846617D00784855607D401CC1B235
:104500006175684640784855607D401CC1B2617550
:10451000684680784855607D401C60756846868195
:1045200003A8FFF77FFF68468089627D81085155A7
:10453000617D8007491CC9B26175800F4855607D57
:10454000401C60750196FFF75FFEFFF765FE01A84E
:10455000FFF770FE6846617D00794855607D401C1C
:10456000C1B26175684640794855607D401C6075F0
:104570000296FFF72FFD02A8FFF734FD6846617D24
:10458000007A4855607D1A23401CC1B261756846A7
:10459000407A4855667532223621374800F03CFE95
:1045A00005463648611C0088288005206880142054
:1045B000A8800246A81D00F075FD284600F032FED6
:1045C000322000F0FFFD052804D0322000F0FAFD73
:1045D00004280AD1274C6078002806D024482A49AC
:1045E000001F4088FFF7BBFAA0807FBDF0B5204DCB
:1045F00085B0687D00271F4E6C1C030000F0E8FDAD
:104600000B071628732727274655649F27006846FF
:104610000780FFF725FE684600886A7D81081155EE
:10462000697D8007491C6975800F0DE06846078029
:10463000FFF716FE684600886A7D81081155697D7E
:104640008007491C6975000F718808437080F0E08D
:1046500068460780FFF704FE684600886A7D810887
:104660001155697D8007491C6975800EECE70000D3
:104670005C5D0020DC90002004D80000B4800020A5
:104680008542002089430020474400206846078077
:10469000FFF7E6FD684600886A7D81081155697D4F
:1046A0008007491C6975800DCEE768460780FFF7D3
:1046B000D7FD684600886A7D81081155697D8007AD
:1046C000491C6975000DBFE768460780FFF7C8FD04
:1046D000684600886A7D81081155697D8007491CFC
:1046E0006975800CB0E76846878001A8FFF7B8FDC0
:1046F000684680886A7D81081155697D8007491C5C
:1047000069757188000E0843708068460097FFF74E
:104710002BFE6846697D00780855687D401CC1B253
:104720006975684640780855687D401CC1B2697556
:10473000684680780855687D401C687579E0684651
:10474000078102A8FFF78CFD684601896A7D880809
:104750001055687D401C6875880371880843708017
:1047600068460097FFF700FE6846697D00780855A7
:10477000687D401CC1B26975684640780855687DFF
:10478000401CC1B26975684680780855687D401C38
:1047900068756846878103A8FFF744FE68468089EC
:1047A000697D80080855687D401C68750197FFF792
:1047B0002BFDFFF731FD01A8FFF73CFD6846697D41
:1047C00000790855687D401CC1B26975684640791A
:1047D0000855687D401C68750497FFF7FBFB04A82B
:1047E000FFF700FC6846697D407C0855687D1A2308
:1047F000401CC0B2687571880155687D090A401C6B
:10480000C0B2015577806F7532223621FE4800F024
:1048100003FD0446FD48691C008820800520608057
:104820001420A0800246A01D00F03CFC204600F0B1
:10483000F9FC322000F0C6FC052804D0322000F03C
:10484000C1FC042808D17078002805D0F148F0494F
:104850004088FFF784F9B08005B0F0BD70B5ED4C2D
:1048600086B0241D607D0026651C030000F0B0FCAE
:104870000D0808080811A2A2A20808080838A2001A
:1048800068460680FFF7ECFC68460088617D80087A
:1048900021E06846868001A8FFF7E2FC6846808830
:1048A000617D80084855607D401C607568460096B3
:1048B000FFF75AFD6846617D00784855607D401CD1
:1048C000C1B26175684640784855607D401CC1B2F0
:1048D0006175684680784855607D401C607569E068
:1048E0006846068102A8FFF7BBFC68460089617D27
:1048F00080084855607D401C607568460096FFF74B
:1049000033FD6846617D00784855607D401CC1B22A
:104910006175684640784855607D401CC1B261753C
:10492000684680784855607D401C60756846868181
:1049300003A8FFF777FD68468089617D80084855A8
:10494000607D401C60750196FFF75EFCFFF764FC1C
:1049500001A8FFF76FFC6846617D00794855607DCE
:10496000401CC1B26175684640794855607D401C65
:1049700060750496FFF72EFB04A8FFF733FB68462B
:10498000617D407C485566751A23322236219E4847
:1049900000F042FC05469D48611C008828800520E7
:1049A00068801420A8800246A81D00F07BFB2846E2
:1049B00000F038FC322000F005FC052804D032203D
:1049C00000F000FC042809D1934C6078002805D041
:1049D000904892494088FFF7C2F8A08006B070BDA9
:1049E00070B505460A2332220E218D4800F014FCD2
:1049F0000446284600F06EFE00228A4B00F0A4FA1E
:104A000000F01AFB01460A20207061800A31A18063
:104A10000020E080FF2091302081204600F002FC41
:104A200070BDF8B5002568460095FFF79DFC794EEE
:104A30001A23341D627D7178601C1154617D6A46B1
:104A4000491CC9B2617512780A54617D6A46491CD5
:104A5000C9B2617552780A54617D6A46491CC9B26F
:104A6000617592780A54657532223621664800F0E5
:104A7000D3FB05466548611C0088288005206880B6
:104A80001420A8800246A81D00F00CFB284600F068
:104A9000C9FB7078401E7070F8BD10B500F0D4FEF0
:104AA0006149082008805B4C642060705F4800F01A
:104AB000ABFE012000F09CFE032000F08DFE0020E4
:104AC00000F0A8FE002000F0ABFE002211461046C8
:104AD000FFF718F9142000F0A9FEFFF732F900F0F3
:104AE000ABFE60780028FDD110BDF8B50026009619
:104AF0008A886846891D00F0D5FA68460178012049
:104B0000454C002917D0434D012920D0022926D039
:104B1000032919D1694649782970291D4E7560709D
:104B20002079FFF73DF82878030000F051FB0522BB
:104B3000242A2C2E0D0069464978012905D0022926
:104B400002D16070FFF7A9FFF8BD6070F8BD68463C
:104B5000807801026846C07808186880F8BD684609
:104B60004078010268468078081880B2FFF738FF65
:104B7000F8BD2A4900E026496888FEF7F0FFA080CA
:104B8000F8BD2B49F8E72B49F6E72B49F4E77CB54C
:104B9000204C0026241D607D651C030000F018FBDE
:104BA000130B0B137F7F7F0B0B137F7F7F0B0B137D
:104BB0007F7F7F547F0068460680FFF751FB684681
:104BC0000088617D3BE06846868001A8FFF748FBCE
:104BD0006846617D80884855607D401C60756846E8
:104BE0000096FFF7C1FB6846617D00784855607DFF
:104BF000401CC1B26175684640784855607D401CD4
:104C0000C1B26175684619E004D80000B480002084
:104C1000ED450020585D0020DC9000205D4800201C
:104C20000E3800000000F43F00330050234A0020FB
:104C30004744002089430020854200208078485561
:104C4000607D401C60752AE0684606808680FFF71C
:104C500007FB6846617D00884855607D401C607593
:104C600001A8FFF7DFFB68468088617D8008485512
:104C700066751A2332223621404800F0CDFA0546E7
:104C80003F48611C00882880052068801420A88087
:104C90000246A81D00F006FA284600F0C3FA3220AA
:104CA00000F090FA052809D1364C6078002805D02C
:104CB000364835494088FEF752FFA0807CBD7CB560
:104CC0000020324C694601900979241D61706946C3
:104CD0004979A170E07020716071A0710090684600
:104CE000FFF742FB69460878E071487820728878BF
:104CF00060721A2332223621204800F08DFA0546D0
:104D00001F48611C00882880052068801420A88026
:104D10000246A81D00F0C6F9284600F083FA194C97
:104D20002078401C2070322000F04CFA052804D076
:104D3000322000F047FA042808D16078002805D016
:104D4000124813494088FEF70AFFA0807CBD10B5C9
:104D5000322000F037FA052804D0322000F032FA71
:104D6000042809D1074C6078002805D00748094974
:104D70004088FEF7F4FEA08010BD000004D80000BB
:104D8000B4800020DC9000208F4B0020585D002074
:104D9000BF4C00204F4D002010B5FEF7A6FC10BD03
:104DA00010B55F4C2078FEF7E9FC0020A07010BD24
:104DB00010B55B48002484705A4805210170FF211A
:104DC0004170CD218170AB21C17004714471FEF737
:104DD000EBFA0120FFF7ABF8FDF7A5FC0520000773
:104DE0000480514A08211180418A202211434182C6
:104DF000418A802211434182018A02229143018229
:104E000010BD70B57D204949C000FEF7A8FE444999
:104E10004870FEF7A5FC43494A790B7912021A4300
:104E2000521C92B20A71130A4B71414B9A4202D141
:104E300000220A714A710446C07C1C2339490622AB
:104E40001B1A062B08DB23461433C01800F02AF97E
:104E5000E07C801DE0740FE025462035287C1F2370
:104E60001B1A062B07DB3134001900F01BF9287CD4
:104E7000801D287400E000BEFBF723FDFEF771FCE7
:104E800070BD70B50C460546FEF795FA0C20294911
:104E9000684340188078FF2817D0214E357070780D
:104EA000FEF77EFE6088A038412806D2A088002840
:104EB00003D1E0882049884205D07D201F49C000E9
:104EC000FEF74DFEB070FBF7FCFC70BD442800D12E
:104ED00097E7704710B5124CA078002803D0FEF772
:104EE0005FFE0020A070322000F06CF9032803D090
:104EF000052801D0042801D1FFF783FF10BD70B54C
:104F00000F4C04190BD00F4D641908D0022C06D099
:104F1000032C04D14C88022C01D1FFF7E6FD70BDB3
:104F20000A8000202881002000330050994D002085
:104F3000FFFF0000B48000202A030000A14D0020E4
:104F4000EFC7FFFF0C60FFFFF0B50C465C4085B07B
:104F5000E40FE40703944C000026640859009446CB
:104F6000490802460296224321D062460A431ED0D7
:104F70006200570D4A000E032303550D012402461B
:104F80002C492405781B1B0B360B40182343264362
:104F9000614600901C46501AB44103D30098401C4F
:104FA000009002E0921800985B41002803DA00208C
:104FB000014605B0F0BD00200121090507468646DF
:104FC00011E064461D46141BB54106D36546521BCD
:104FD000B341744607430C43A646CD074008490831
:104FE000284392185B4105460D43EAD11046184309
:104FF00013D06046194650407140084306D06046C1
:10500000101AB34106D20122002306E00022012338
:10501000DB0702E00122D2435310009874460105D9
:10502000381C6141029C039D0019694100F058FB46
:10503000BFE70000FD0300004A0009030123090B3C
:105040001B051943094B10B5520D9A4201DA002095
:1050500010BD064B34339A4203DC9A1A00F046FB2B
:1050600010BD03495118884010BD0000FF03000027
:10507000CDFBFFFF064C0125064E05E0E36807CC9B
:105080002B430C3C98471034B442F7D3FBF7DCF9C0
:10509000445C0020745C002003B40148019001BD11
:1050A000773B030003B40148019001BD213B03009D
:1050B00003B40148019001BDD729030003B401489E
:1050C000019001BD2B69020003B40148019001BDAC
:1050D000C12D030003B40148019001BD0921030063
:1050E00003B40148019001BDC92D030003B4014878
:1050F000019001BDEB31030003B40148019001BDF3
:105100003D32030003B40148019001BDD7210300E3
:1051100003B40148019001BD2F2F030003B40148DF
:10512000019001BD998F020003B40148019001BDB7
:10513000938F020003B40148019001BDCD8C0200A1
:1051400003B40148019001BD418F020003B401483E
:10515000019001BD2768020003B40148019001BD20
:105160003968020003B40148019001BDB780020014
:1051700003B40148019001BD0F3B030003B4014893
:10518000019001BD551B020003B40148019001BD0F
:10519000CF2B030003B40148019001BDCB2C0300C9
:1051A00003B40148019001BD0990020003B4014815
:1051B000019001BD831D020003B40148019001BDAF
:1051C000BF24030003B40148019001BDB3260300CE
:1051D00003B40148019001BDFD3D030003B4014843
:1051E000019001BD197D020003B40148019001BD89
:1051F0000522020003B40148019001BD15220300FD
:1052000003B40148019001BD533B030003B40148BE
:10521000019001BD3126030003B40148019001BD96
:10522000B123030003B40148019001BDE123030051
:1052300003B40148019001BDA528030003B401484F
:10524000019001BDD5AF020003B40148019001BD3A
:10525000A1A5020003B40148019001BDE3A502002D
:1052600003B40148019001BD87A8020003B40148BE
:10527000019001BDA7A9020003B40148019001BD3E
:1052800093AA020003B40148019001BDF9AB0200EA
:1052900003B40148019001BD69AC020003B40148A8
:1052A000019001BD17AD020003B40148019001BD9A
:1052B00077AD020003B40148019001BDF1AD0200D9
:1052C00003B40148019001BD85AE020003B401485A
:1052D000019001BD11AF020003B40148019001BD6E
:1052E000859A020003B40148019001BDD3B20200C7
:1052F00003B40148019001BD7FA5020003B4014839
:10530000019001BDD7A5020003B40148019001BD81
:1053100075A5020003B40148019001BD19A7020060
:1053200003B40148019001BD5799020003B401483C
:10533000019001BD8D3D030003B40148019001BD02
:105340003350020003B40148019001BDA73A0300A5
:1053500003B40148019001BD5548020003B401485F
:10536000019001BD1F50020003B40148019001BD2E
:105370007F0C030003B40148019001BDAB0C030096
:1053800003B40148019001BDBF22020003B40148EB
:10539000019001BDEB26030003B40148019001BD5B
:1053A0003524030003B40148019001BD2F220200FF
:1053B00003B40148019001BDDD20030003B401489E
:1053C000019001BD9D20030003B40148019001BD7F
:1053D00049E5020003B40148019001BDF9E3020070
:1053E00003B40148019001BD4BCD020003B4014854
:1053F000019001BD99D1020003B40148019001BDA3
:10540000ABD0020003B40148019001BD69D0020095
:1054100003B40148019001BD77CF020003B40148F5
:10542000019001BD01CC020003B40148019001BD0F
:1054300029CC020003B40148019001BD15D202003D
:1054400003B40148019001BD8DD2020003B40148AC
:10545000019001BDFD3A030003B40148019001BD74
:10546000C52D020003B40148019001BDCB7F0200AD
:1054700003B40148019001BDEB2A020003B40148C6
:10548000019001BD1F32020003B40148019001BD2B
:105490002528030003B40148019001BDBD3002007E
:1054A00003B40148019001BDBB7F020003B4014871
:1054B000019001BDB938020003B40148019001BD5B
:1054C0007758020003B40148019001BDD7220300C0
:1054D00003B40148019001BD2D42020003B401480C
:1054E000019001BD7B30020003B40148019001BD71
:1054F000CD2B020003B40148019001BDB93E02006A
:1055000003B40148019001BD7F3E020003B401488D
:10551000019001BDBDE4020003B40148019001BD4A
:1055200061F4020003B40148019001BD71E402007E
:1055300003B40148019001BD95E3020003B40148A2
:10554000019001BD3DF6020003B40148019001BD88
:10555000912A020003B40148019001BDF38E0200BC
:1055600003B40148019001BD218E020003B401483B
:10557000019001BD652C030003B40148019001BDF9
:10558000DB2E030003B40148019001BD231D02007E
:1055900003B40148019001BDC32C030003B40148CA
:1055A000019001BD1531030003B40148019001BD14
:1055B0003B66020003B40148019001BD2B66020066
:1055C00003B40148019001BD038D020003B40148FA
:1055D000019001BDCF8F020003B40148019001BDCD
:1055E0001B66020003B40148019001BD792003004D
:1055F00003B40148019001BD2129030003B401480F
:10560000019001BDC768020003B40148019001BDCB
:105610000D2C030003B40148019001BD95980200D0
:1056200003B40148019001BD9599020003B40148FB
:10563000019001BD6D9B020003B40148019001BDC2
:10564000739B020003B40148019001BDE3E3020033
:1056500003B40148019001BD299C020003B4014834
:10566000019001BD533B030003B40148019001BD0B
:105670008725030003B40148019001BD7B9C020013
:1056800003B40148019001BDB7E3020003B401482F
:10569000019001BDC59B020003B40148019001BD0A
:1056A000419C020003B40148019001BD2B9B020004
:1056B00003B40148019001BDA59B020003B4014859
:1056C000019001BDF3AF020003B40148019001BD98
:1056D000D129030003B40148019001BD893C0300B6
:1056E00003B40148019001BDCD3C030003B401485F
:1056F000019001BDAD3D030002E008C8121F08C1C2
:10570000002AFAD170477047002001E001C1121F42
:10571000002AFBD17047000010B5002823D0124B9F
:105720000022001F196803E0814203D80A46496835
:105730000029F9D1002A0AD01368841A9C4204D1A6
:10574000006818181060104602E0506000E0186011
:10575000002907D002680B1A934203D10B68D218B4
:1057600002604968416010BD745D0020F0B50B30E7
:10577000C108C900144F0026144A0FE003688B4289
:105780000BD38B4205D95C1A4318456830C3083BDC
:1057900000E04368136002C004E0021D10680028A6
:1057A000ECD13046002803D13868002801D0002011
:1057B000F0BD064A06481060064A121AD208D20006
:1057C00044C001203860D7E7785D0020745D002078
:1057D000EC900020E891002004490A6880079208B4
:1057E0009200800F02430A607047000004000050DE
:1057F00004490A680823C0079A43000F02430A605D
:105800007047000004000050014908607047000024
:105810000480002001498880704700000034005057
:105820000149C88070470000003400500149488099
:105830007047000000340050024801680122114303
:10584000016070470034005002480168490849006F
:1058500001607047003400500101000A04280A0466
:105860000203AA0055032A00A001FFFF2C0100003B
:1058700003100020FFFF0000810C00200008000042
:10588000A90C0020745800200200000054430300BB
:10589000845800203204080006000100470D002053
:1058A0005D0D0020FF130020BD140020E114002036
:1058B00085130020291D00203511002094270300A6
:1058C00062B600DFA4E2020001DF81B01CCA020060
:1058D000F8BD02DF40CB0200F5E703DF84D402000D
:1058E00004DF89B0941B030005DF00B51C2C020007
:1058F00062B606DFEC0C030070BD07DF0114000088
:10590000910E0020002800001FA202000C1C0000C5
:10591000DDA20200001C00001FA2020001280000FE
:10592000DDA10200021400001FA40200000000001C
:105930000000000000000000000000000000000067
:105940000000000000000000000000000000000057
:1059500000000000FC580020060000002C59002028
:1059600054590020D004080005000600FFFF000085
:10597000711B002005040000C91800202604000047
:10598000A5190020230400004B1B00202404000064
:10599000251B002029040000E71800202A0400002D
:1059A000BF1A00202C0400003D1800202F04000026
:1059B0008F1A0020010800003D1900200008000097
:1059C000EF3F0200000000000000000000000000A7
:1059D00000000000000000000000000000000000C7
:1059E00000000000000000000000000000000000B7
:1059F00000000000000000000000000000000000A7
:105A00000000000000000000000000000000000096
:105A10000000000000000000000000000000000086
:105A20000000000000000000000000000000000076
:105A30000000000000000000000000000000000066
:105A40000000000000000000000000000000000056
:105A50000000000000000000000000000000000046
:105A600000000000B4590020020000000000000007
:105A7000000000006C59002009000000C4590020FB
:105A8000745A00206403080016000600FFFF00009F
:105A9000C91B00200C040000F11B002011040000B1
:105AA000771C00208C5A00200300000010490300DE
:105AB000A45A00206C05080003000600FF003F0008
:105AC000FF03FF01145B00202C5B00209A80002064
:105AD0000300010000D800007D2F002002D8000044
:105AE000F12F00200E3000002D300020003000008B
:105AF0005931002004D80000CB31002003D8000029
:105B0000A531002006D800004F32002003380000E5
:105B1000D3320020DC5A002001000000D45A0020BB
:105B200001000000E45A0020050000000C5B00208A
:105B30000100000000000000A000A000070100011B
:105B40000203040506000A00000000000000000037
:105B50000000000000000000000000001700A0008E
:105B6000E00000002A030000FF0000000000000029
:105B700000000000FF000000000000000000000026
:105B800000000000D45B0020D4800020060001004B
:105B9000FF4E002001340000413800200034000096
:105BA00065380020003800001D3900200138000051
:105BB000BF380020033800005539002000C800001D
:105BC000753900201034000099390020FFFF0000D3
:105BD000C5390020CC5B002001000000FF4E0020F2
:105BE0009D390020B33A0020E73C002001D8000096
